{
  "_format": "hh-sol-artifact-1",
  "contractName": "WavePortal",
  "sourceName": "contracts/WaveContract.sol",
  "abi": [
    {
      "inputs": [],
      "stateMutability": "payable",
      "type": "constructor"
    },
    {
      "anonymous": false,
      "inputs": [
        {
          "indexed": true,
          "internalType": "address",
          "name": "from",
          "type": "address"
        },
        {
          "indexed": false,
          "internalType": "uint256",
          "name": "timestamp",
          "type": "uint256"
        },
        {
          "indexed": false,
          "internalType": "string",
          "name": "message",
          "type": "string"
        }
      ],
      "name": "NewWave",
      "type": "event"
    },
    {
      "inputs": [],
      "name": "getAllWaves",
      "outputs": [
        {
          "components": [
            {
              "internalType": "address",
              "name": "waver",
              "type": "address"
            },
            {
              "internalType": "string",
              "name": "message",
              "type": "string"
            },
            {
              "internalType": "uint256",
              "name": "timestamp",
              "type": "uint256"
            }
          ],
          "internalType": "struct WavePortal.Wave[]",
          "name": "",
          "type": "tuple[]"
        }
      ],
      "stateMutability": "view",
      "type": "function"
    },
    {
      "inputs": [],
      "name": "getTotalWaves",
      "outputs": [
        {
          "internalType": "uint256",
          "name": "",
          "type": "uint256"
        }
      ],
      "stateMutability": "view",
      "type": "function"
    },
    {
      "inputs": [
        {
          "internalType": "string",
          "name": "_message",
          "type": "string"
        }
      ],
      "name": "wave",
      "outputs": [],
      "stateMutability": "nonpayable",
      "type": "function"
    }
  ],
  "bytecode": "0x60806040526200004f6040518060400160405280600781526020017f57617a7a616161000000000000000000000000000000000000000000000000008152506200005560201b6200052a1760201c565b620001e9565b620000f5816040516024016200006c919062000162565b6040516020818303038152906040527f41304fac000000000000000000000000000000000000000000000000000000007bffffffffffffffffffffffffffffffffffffffffffffffffffffffff19166020820180517bffffffffffffffffffffffffffffffffffffffffffffffffffffffff8381831617835250505050620000f860201b60201c565b50565b60008151905060006a636f6e736f6c652e6c6f679050602083016000808483855afa5050505050565b60006200012e8262000186565b6200013a818562000191565b93506200014c818560208601620001a2565b6200015781620001d8565b840191505092915050565b600060208201905081810360008301526200017e818462000121565b905092915050565b600081519050919050565b600082825260208201905092915050565b60005b83811015620001c2578082015181840152602081019050620001a5565b83811115620001d2576000848401525b50505050565b6000601f19601f8301169050919050565b610f7780620001f96000396000f3fe608060405234801561001057600080fd5b50600436106100415760003560e01c8063449d46c0146100465780639a2cdc0814610062578063bd43a90814610080575b600080fd5b610060600480360381019061005b919061082f565b61009e565b005b61006a61038e565b6040516100779190610b59565b60405180910390f35b6100886103d9565b6040516100959190610a75565b60405180910390f35b60016000808282546100b09190610c6b565b925050819055506100f66040518060400160405280600c81526020017f2573206861732077617665640000000000000000000000000000000000000000815250336105c3565b600260405180606001604052803373ffffffffffffffffffffffffffffffffffffffff16815260200183815260200142815250908060018154018082558091505060019003906000526020600020906003020160009091909190915060008201518160000160006101000a81548173ffffffffffffffffffffffffffffffffffffffff021916908373ffffffffffffffffffffffffffffffffffffffff16021790555060208201518160010190805190602001906101b5929190610724565b506040820151816002015550503373ffffffffffffffffffffffffffffffffffffffff167f5f7e16dc676677766a70e9c5628aa6c54ddb8b6e5188e2ae1e1f17f1ffbea716428360405161020a929190610b74565b60405180910390a260006103e860015442446102269190610c6b565b6102309190610c6b565b61023a9190610da2565b905061027b6040518060400160405280601681526020017f52616e646f6d20232067656e6572617465643a202573000000000000000000008152508261065f565b80600181905550600281101561038a576000670de0b6b3a76400009050478111156102db576040517f08c379a00000000000000000000000000000000000000000000000000000000081526004016102d290610b19565b60405180910390fd5b60003373ffffffffffffffffffffffffffffffffffffffff168260405161030190610a60565b60006040518083038185875af1925050503d806000811461033e576040519150601f19603f3d011682016040523d82523d6000602084013e610343565b606091505b5050905080610387576040517f08c379a000000000000000000000000000000000000000000000000000000000815260040161037e90610b39565b60405180910390fd5b50505b5050565b60006103d16040518060400160405280601681526020017f5765206861766520256420746f74616c2077617665730000000000000000000081525060005461065f565b600054905090565b60606002805480602002602001604051908101604052809291908181526020016000905b8282101561052157838290600052602060002090600302016040518060600160405290816000820160009054906101000a900473ffffffffffffffffffffffffffffffffffffffff1673ffffffffffffffffffffffffffffffffffffffff1673ffffffffffffffffffffffffffffffffffffffff16815260200160018201805461048690610d3f565b80601f01602080910402602001604051908101604052809291908181526020018280546104b290610d3f565b80156104ff5780601f106104d4576101008083540402835291602001916104ff565b820191906000526020600020905b8154815290600101906020018083116104e257829003601f168201915b50505050508152602001600282015481525050815260200190600101906103fd565b50505050905090565b6105c08160405160240161053e9190610a97565b6040516020818303038152906040527f41304fac000000000000000000000000000000000000000000000000000000007bffffffffffffffffffffffffffffffffffffffffffffffffffffffff19166020820180517bffffffffffffffffffffffffffffffffffffffffffffffffffffffff83818316178352505050506106fb565b50565b61065b82826040516024016105d9929190610ab9565b6040516020818303038152906040527f319af333000000000000000000000000000000000000000000000000000000007bffffffffffffffffffffffffffffffffffffffffffffffffffffffff19166020820180517bffffffffffffffffffffffffffffffffffffffffffffffffffffffff83818316178352505050506106fb565b5050565b6106f78282604051602401610675929190610ae9565b6040516020818303038152906040527f9710a9d0000000000000000000000000000000000000000000000000000000007bffffffffffffffffffffffffffffffffffffffffffffffffffffffff19166020820180517bffffffffffffffffffffffffffffffffffffffffffffffffffffffff83818316178352505050506106fb565b5050565b60008151905060006a636f6e736f6c652e6c6f679050602083016000808483855afa5050505050565b82805461073090610d3f565b90600052602060002090601f0160209004810192826107525760008555610799565b82601f1061076b57805160ff1916838001178555610799565b82800160010185558215610799579182015b8281111561079857825182559160200191906001019061077d565b5b5090506107a691906107aa565b5090565b5b808211156107c35760008160009055506001016107ab565b5090565b60006107da6107d584610bc9565b610ba4565b9050828152602081018484840111156107f257600080fd5b6107fd848285610cfd565b509392505050565b600082601f83011261081657600080fd5b81356108268482602086016107c7565b91505092915050565b60006020828403121561084157600080fd5b600082013567ffffffffffffffff81111561085b57600080fd5b61086784828501610805565b91505092915050565b600061087c83836109f2565b905092915050565b61088d81610cc1565b82525050565b61089c81610cc1565b82525050565b60006108ad82610c0a565b6108b78185610c2d565b9350836020820285016108c985610bfa565b8060005b8581101561090557848403895281516108e68582610870565b94506108f183610c20565b925060208a019950506001810190506108cd565b50829750879550505050505092915050565b600061092282610c15565b61092c8185610c49565b935061093c818560208601610d0c565b61094581610e8f565b840191505092915050565b600061095b82610c15565b6109658185610c5a565b9350610975818560208601610d0c565b61097e81610e8f565b840191505092915050565b6000610996603483610c5a565b91506109a182610ea0565b604082019050919050565b60006109b9602783610c5a565b91506109c482610eef565b604082019050919050565b60006109dc600083610c3e565b91506109e782610f3e565b600082019050919050565b6000606083016000830151610a0a6000860182610884565b5060208301518482036020860152610a228282610917565b9150506040830151610a376040860182610a42565b508091505092915050565b610a4b81610cf3565b82525050565b610a5a81610cf3565b82525050565b6000610a6b826109cf565b9150819050919050565b60006020820190508181036000830152610a8f81846108a2565b905092915050565b60006020820190508181036000830152610ab18184610950565b905092915050565b60006040820190508181036000830152610ad38185610950565b9050610ae26020830184610893565b9392505050565b60006040820190508181036000830152610b038185610950565b9050610b126020830184610a51565b9392505050565b60006020820190508181036000830152610b3281610989565b9050919050565b60006020820190508181036000830152610b52816109ac565b9050919050565b6000602082019050610b6e6000830184610a51565b92915050565b6000604082019050610b896000830185610a51565b8181036020830152610b9b8184610950565b90509392505050565b6000610bae610bbf565b9050610bba8282610d71565b919050565b6000604051905090565b600067ffffffffffffffff821115610be457610be3610e60565b5b610bed82610e8f565b9050602081019050919050565b6000819050602082019050919050565b600081519050919050565b600081519050919050565b6000602082019050919050565b600082825260208201905092915050565b600081905092915050565b600082825260208201905092915050565b600082825260208201905092915050565b6000610c7682610cf3565b9150610c8183610cf3565b9250827fffffffffffffffffffffffffffffffffffffffffffffffffffffffffffffffff03821115610cb657610cb5610dd3565b5b828201905092915050565b6000610ccc82610cd3565b9050919050565b600073ffffffffffffffffffffffffffffffffffffffff82169050919050565b6000819050919050565b82818337600083830152505050565b60005b83811015610d2a578082015181840152602081019050610d0f565b83811115610d39576000848401525b50505050565b60006002820490506001821680610d5757607f821691505b60208210811415610d6b57610d6a610e31565b5b50919050565b610d7a82610e8f565b810181811067ffffffffffffffff82111715610d9957610d98610e60565b5b80604052505050565b6000610dad82610cf3565b9150610db883610cf3565b925082610dc857610dc7610e02565b5b828206905092915050565b7f4e487b7100000000000000000000000000000000000000000000000000000000600052601160045260246000fd5b7f4e487b7100000000000000000000000000000000000000000000000000000000600052601260045260246000fd5b7f4e487b7100000000000000000000000000000000000000000000000000000000600052602260045260246000fd5b7f4e487b7100000000000000000000000000000000000000000000000000000000600052604160045260246000fd5b6000601f19601f8301169050919050565b7f547279696e6720746f207769746864726177206d6f7265206d6f6e657920746860008201527f616e2074686520636f6e7472616374206861732e000000000000000000000000602082015250565b7f4661696c656420746f207769746864726177206d6f6e65792066726f6d20636f60008201527f6e74726163742e00000000000000000000000000000000000000000000000000602082015250565b5056fea26469706673582212206c64571f9c297618742d6eb6154dca172262ed97da3fab4c1e760866e206422064736f6c63430008040033",
  "linkReferences": {},
  "deployedLinkReferences": {}
}